S01A000044656275672F4D696E655377656570657247442E733139D5
S315200000000248854601F060FBFEE7000000C00120A3
S31520000010C046C04680B500AF0B4B1B68002B0FD1E6
S315200000200A4B01221A600A4B00221A60094BFF2252
S315200000301A60094B00221A60054B07221A6000E05D
S31520000040C046BD4680BDC0464C1C0020501C00202A
S3152000005010E000E014E000E018E000E080B500AF1A
S31520000060054B1B68002B02D0044B1B6800E00023C5
S315200000701800BD4680BDC046501C002018E000E098
S3152000008080B500AF044B00221A60044B00221A6090
S31520000090C046BD4680BDC04610E000E0501C002092
S315200000A080B500AF024B034A1A60C046BD4680BDEC
S315200000B03CC00120E900002080B500AF074B00229C
S315200000C01A60074BA7221A60064B00221A60034BC0
S315200000D007221A60C046BD4680BDC04610E000E03B
S315200000E014E000E018E000E080B500AF054B1B6887
S315200000F0002B02D000F02AF801E000F005F8C046F7
S31520000100BD4680BD501C002080B500AF0B4B0022A1
S315200001101A600B4B1B685A1E094B1A60084B1B684A
S31520000120002B02DDFFF7C8FF05E0064B01221A600F
S31520000130054B00221A60C046BD4680BD10E000E097
S31520000140481C0020441C00204C1C002080B500AF19
S31520000150074B00221A60074BFF221A60064B00222B
S315200001601A60034B07221A60C046BD4680BDC046B2
S3152000017010E000E014E000E018E000E080B582B076
S3152000018000AF78600C4B1B68002B0ED10B4B012265
S315200001901A607B68002B0AD07A68094B1A60094BD3
S315200001A000221A60FFF788FF02E0C04600E0C04642
S315200001B0BD4602B080BDC046501C00204C1C00200D
S315200001C0481C0020441C002080B582B000AF786017
S315200001D07B68002B02D000F06BF902E0034B044A47
S315200001E01A60C046BD4602B080BDC046001002401F
S315200001F055555555F0B5B7B018AFF860B960FB1D29
S315200002001A70FB1D1B78243B3A2B54D89A003D4B81
S31520000210D3181B689F461423FA183B4B100019006D
S3152000022061231A0001F0FAFC4FE01423FA18374B29
S315200002301000190061231A0001F0F0FC45E0142398
S31520000240FA18334B1000190061231A0001F0E6FC5E
S315200002503BE01423FA182F4B1000190061231A00D3
S3152000026001F0DCFC31E01423FA182B4B10001900A6
S3152000027061231A0001F0D2FC27E01423FA18274B39
S315200002801000190061231A0001F0C8FC1DE0142398
S31520000290FA18234B1000190061231A0001F0BEFC46
S315200002A013E01423FA181F4B1000190061231A00BB
S315200002B001F0B4FC09E01423FA181B4B10001900B6
S315200002C061231A0001F0AAFCC046FB68DD00BA686B
S315200002D013005B009B189B001E001423FC186B4622
S315200002E01800230008335922190001F097FC2268D0
S315200002F063683100280000F019F8C046BD461FB0DB
S31520000300F0BDC0461C27002034230020982300205F
S31520000310FC23002060240020C4240020282500205F
S315200003208C25002054260020B826002082B080B5D7
S3152000033084B000AF78603960182179180A604B6064
S315200003400023FB6029E00023BB6020E01823FB1874
S31520000350FA68D2009A18BB68D31801331B78002B91
S3152000036009D0BA687B68D018FA683B68D318190098
S3152000037000F024F808E0BA687B68D018FA683B6871
S31520000380D318190000F01DF8BB680133BB60BB68A9
S31520000390072BDBDDFB680133FB60FB680B2BD2DD13
S315200003A0C046C046BD4604B080BC08BC02B0184753
S315200003B0F0DF7047C046F1DF7047C046F2DF704776
S315200003C0C046F3DF7047C046B0B588B000AF012104
S315200003D0012000F083F810217B180D4A31CA31C361
S315200003E012781A703B1D0B4A11CA11C312881A8043
S315200003F07B18180000F090F80221012000F06EF81A
S315200004003B1D180000F088F8C046BD4608B0B0BDB8
S31520000410082800201828002080B584B000AF786016
S315200004207B68002B17DD01210C2000F057F80C20EB
S315200004303B18124A1188198092789A703B18180036
S3152000044000F06AF801210C2000F048F87B681800BB
S3152000045000F077F80DE001210C2000F03FF82D2068
S3152000046000F09EF87B685B427B607B68180000F09A
S3152000047068F8C046BD4604B080BDC046242800208A
S3152000048080B582B000AF786039600221082000F084
S3152000049025F87B68180000F054F82E2000F080F82C
S315200004A03B68180000F04DF8C046BD4602B080BD3E
S315200004B080B500AF074B084A1A60012000F08EF87D
S315200004C00F2000F08BF80121012000F007F8C0462C
S315200004D0BD4680BD001002405555555580B584B0A7
S315200004E000AF786039607B68013BFB603B68022B7C
S315200004F002D1FB68403300E0FB68FB60FB685BB21F
S315200005008022524213435BB2DBB2180000F0F3F8AC
S31520000510C046BD4604B080BD80B582B000AF7860CD
S3152000052006E07B685A1C7A601B78180000F038F8C1
S315200005307B681B78002BF4D1C046C046BD4602B06E
S3152000054080BD80B584B000AF78607B68092B07DC5E
S315200005507B68DBB23033DBB2180000F021F81BE0F9
S315200005607B680A21180001F06DFA0300FB607B68A6
S315200005700A21180001F04CFB0B00BB60FB68DBB2C4
S315200005803033DBB2180000F00BF8BB68DBB2303337
S31520000590DBB2180000F004F8C046BD4604B080BDAA
S315200005A080B582B000AF0200FB1D1A70C04600F075
S315200005B053F803001A0080231340802BF7D008201D
S315200005C000F028F9FB1D1B78180000F07FF82D207D
S315200005D000F020F9C046BD4602B080BD80B582B08D
S315200005E000AF0200FB1D1A70C04600F035F803006C
S315200005F01A0080231340802BF7D0082000F00AF938
S31520000600FB1D1B78180000F076F8022000F025F973
S31520000610C046BD4602B080BD90B583B000AF0B4B3F
S315200006200B4A1A60022000F093F8012000F090F89F
S31520000630FC1D00F031F803002370044B054A1A60B4
S31520000640FB1D1B781800BD4603B090BD001002406C
S31520000650555500005555555590B583B000AF0B4BF9
S315200006600B4A1A60022000F073F8012000F08CF883
S31520000670FC1D00F011F803002370044B054A1A6094
S31520000680FB1D1B781800BD4603B090BD001002402C
S31520000690555500005555555580B582B000AF4020C0
S315200006A000F056F800F094F800F092F8064AFB1D88
S315200006B012781A70402000F067F8FB1D1B7818008E
S315200006C0BD4602B080BDC0461110024080B582B042
S315200006D000AF0200FB1D1A70012000F039F802203D
S315200006E000F052F8FB1D1B78180000F019F8C046E0
S315200006F0BD4602B080BD80B582B000AF0200FB1DB2
S315200007001A70022000F040F8012000F03DF8FB1D91
S315200007101B78180000F004F8C046BD4602B080BD24
S3152000072080B582B000AF0200FB1D1A70402000F099
S315200007300FF8064AFB1D1B78137000F049F840207D
S3152000074000F022F8C046BD4602B080BD151002401A
S3152000075080B584B000AF0200FB1D1A70094A0F2134
S315200007607B1812781A70FA1D7B1812781B7813439F
S31520000770DBB2044A04210B43DBB21370C046BD46EC
S3152000078004B080BD1410024080B584B000AF0200D2
S31520000790FB1D1A700D4A0F217B1812781A70FB1D4B
S315200007A01B785BB2DB435BB27A18127852B21340E5
S315200007B05AB27B181A70054A7B181B7804210B4302
S315200007C0DBB21370C046BD4604B080BD1410024093
S315200007D080B500AF0C4B00221A600C4B29221A6000
S315200007E00B4B00221A60084B05221A60C046064BA6
S315200007F01A6880235B021340F9D0034B00221A604B
S31520000800C046BD4680BDC04610E000E014E000E0D2
S3152000081018E000E080B582B000AF78607B68FA22ED
S315200008209100180001F084F803007B607B68013397
S315200008307B600AE0FFF7CCFFFFF7CAFFFFF7C8FF90
S31520000840FFF7C6FF7B68013B7B607B68002BF1D1FD
S31520000850C046C046BD4602B080BD80B582B000AF5E
S3152000086078607A6813005B019B1A9B009B18DB005B
S315200008701800FFF7CFFFC046BD4602B080BDC04678
S3152000088080B584B000AF3C233B600023FB6000238F
S31520000890BB6032E000237B6029E01E487B68B96894
S315200008A01A005200D218D3001A000B001B015B1A43
S315200008B0DB00D318C31814331B68002B14D015483B
S315200008C07B68B9681A005200D218D3001A000B00B0
S315200008D01B015B1ADB00D318C31810331B68002BCF
S315200008E002D1FB680133FB607B6801337B607B6848
S315200008F0042BD2DDBB680133BB60BB680D2BC9DD81
S31520000900FB683C2B02D1044B01221A60C046BD462F
S3152000091004B080BD701C00201823002090B58BB039
S3152000092000AF3B1D186059609A6000237B62FFF779
S3152000093071FB41E0FFF792FB03000E21180001F046
S3152000094067F90B00BB61FFF789FB0300052118003F
S3152000095001F05EF90B007B6131487B69B9691A00A9
S315200009605200D218D3001A000B001B015B1ADB00C1
S31520000970D318C31810331B68002B1DD13B1D1B68D1
S31520000980BA699A4218D03B1D5B687A699A4213D09D
S3152000099023487B69B9691A005200D218D3001A007D
S315200009A00B001B015B1ADB00D318C318103301227E
S315200009B01A607B6A01337B627B6A092BBADDFFF7FB
S315200009C05FFB00233B6223E00023FB611AE0154B0B
S315200009D01A68F9693B6A180000F058FA04001048B2
S315200009E0FB69396A1A005200D218D3001A000B008C
S315200009F01B015B1ADB00D318C31808331C60FB6984
S31520000A000133FB61FB69042BE1DD3B6A01333B6269
S31520000A103B6A0D2BD8DDC046C046BD460BB090BD07
S31520000A20701C00202023002080B584B000AF3B1D21
S31520000A30186059609A603B1D186859689A68FFF7D4
S31520000A406DFF3B1D1A683B1D5B681900100000F006
S31520000A50EFF8C046BD4604B080BD80B582B000AF79
S31520000A6000237B602BE000233B6022E018483B6894
S31520000A7079681A005200D218D3001A000B001B0105
S31520000A805B1ADB00D318C31810331B68002B0DD05C
S31520000A903A687B681100180000F005FC0D4B1868B9
S31520000AA00D4B1B682A221900FFF7A4FB3B68013374
S31520000AB03B603B68042BD9DD7B6801337B607B6818
S31520000AC00D2BD0DDC046C046BD4602B080BDC04617
S31520000AD0701C00201C230020641C0020B0B586B0AA
S31520000AE002AF3B1D186059609A603B1D19683B1D7B
S31520000AF05B6846481A005200D218D3001A000B0031
S31520000B001B015B1ADB00D318C31814331B68002B98
S31520000B1000D076E03B1D19683B1D5B683B481A00F8
S31520000B205200D218D3001A000B001B015B1ADB00FF
S31520000B30D318C3180C331B685A1C3B1D19683B1D60
S31520000B405868334B134004D5013B022252421343CB
S31520000B5001331D002D4C020052001218D3001A003A
S31520000B600B001B015B1ADB00D318E3180C331D6046
S31520000B703B1D19683B1D5B6824481A005200D21899
S31520000B80D3001A000B001B015B1ADB00D318C31815
S31520000B900C331B68002B03D03B1D9B685A1C02E0BC
S31520000BA03B1D9B685A1E3B1D9A603B1D9B68012B73
S31520000BB003D1184B1B685A1C02E0164B1B685A1EA1
S31520000BC0144B1A603B1D19683B1D5B680F4C1A00BD
S31520000BD05200D218D3001A000B001B015B1ADB004F
S31520000BE0D3181021E21851186A4621C921C2185972
S31520000BF0E2185168E2189268E318DB6800F048FAB8
S31520000C0000E0C046BD4604B0B0BDC046701C002002
S31520000C10010000802423002080B500AFFFF71DFFD0
S31520000C20024B01221A60C046BD4680BD1823002013
S31520000C30B0B58AB002AF7860396091483B68796870
S31520000C401A005200D218D3001A000B001B015B1A9F
S31520000C50DB00D318C3180C331B68002B00D00BE124
S31520000C6087483B6879681A005200D218D3001A00C8
S31520000C700B001B015B1ADB00D318C31814331B6847
S31520000C80002B56D07F4B1A6839687B68180000F015
S31520000C90FDF804007C4B1A6839687B68180000F060
S31520000CA0F5F803009C4244D101235B42FB613CE002
S31520000CB001235B42BB6132E07A68FB69D1183A684E
S31520000CC0BB69D3186E481A005200D218D3001A00F6
S31520000CD00B001B015B1ADB00D318C31814331B68E7
S31520000CE0002B19D17A68FB69D0183A68BB69D318EA
S31520000CF0190000F0B3F9031E0ED0FB69002B02D1B8
S31520000D00BB69002B08D07A68FB69D0183A68BB69A2
S31520000D10D3181900FFF78CFFBB690133BB61BB6990
S31520000D20012BC9DDFB690133FB61FB69012BBFDDAB
S31520000D30A3E0544B1A6839687B68180000F0A6F8BF
S31520000D400300FB604E483B6879681A005200D218AF
S31520000D50D3001A000B001B015B1ADB00D318C31843
S31520000D6010331B68002B02D0FFF756FF85E044485E
S31520000D703B6879681A005200D218D3001A000B007B
S31520000D801B015B1ADB00D318C318143301221A6027
S31520000D903B4C3B6879681A005200D218D3001A00DF
S31520000DA00B001B015B1ADB00D3181021E218511827
S31520000DB06A4621C921C21859E2185168E218926878
S31520000DC0E318DB6800F064F9FB68002B55D101239A
S31520000DD05B427B614CE001235B423B6142E07A68E7
S31520000DE07B69D0183A683B69D318190000F036F9A8
S31520000DF0031E34D07A687B69D1183A683B69D318C8
S31520000E001F481A005200D218D3001A000B001B01EB
S31520000E105B1ADB00D318C31814331B68002B1ED1B2
S31520000E207A687B69D1183A683B69D31814481A0046
S31520000E305200D218D3001A000B001B015B1ADB00EC
S31520000E40D318C31810331B68002B08D17A687B6926
S31520000E50D0183A683B69D3181900FFF7E9FE3B69B9
S31520000E6001333B613B69012BB9DD7B6901337B6132
S31520000E707B69012BAFDD00E0C046BD4608B0B0BDA2
S31520000E80701C0020202300206C1C0020B0B58AB0E6
S31520000E9002AFF860B9607A600023FB6101235B42F0
S31520000EA0BB6143E001235B427B6139E0FA68BB69A1
S31520000EB0D018BA687B69D318190000F0CFF8031E42
S31520000EC02BD0FA68BB69D118BA687B69D3181B4C3A
S31520000ED01A005200D218D3001A000B001B015B1A0D
S31520000EE0DB00D3181021E21851186A4621C921C205
S31520000EF01859E2185168E2189268E318DB687C6892
S31520000F00A0470300012B08D1BB69002B02D17B69C6
S31520000F10002B02D0FB690133FB617B6901337B61C6
S31520000F207B69012BC2DDBB690133BB61BB69012B28
S31520000F30B8DDFB691800BD4608B0B0BD701C0020A6
S31520000F4084B0B0B500AF0C253C1D641920606160EB
S31520000F50A260E3603B1D5B191B691800BD46B0BC4F
S31520000F6008BC04B0184784B0B0B500AF0C253C1DB2
S31520000F70641920606160A260E3603B1D5B19DB6839
S31520000F801800BD46B0BC08BC04B01847B0B58AB03E
S31520000F9002AFF86038000160426083603B00196848
S31520000FA03B005B682A4C1A005200D218D3001A0064
S31520000FB00B001B015B1ADB00D3181021E218511815
S31520000FC06A4621C921C21859E2185168E218926866
S31520000FD0E318DB6800F05CF83023FB181B78180058
S31520000FE000F0A2F80300FB613B001A68FB691B684E
S31520000FF0D318BB613B005A68FB6904331B68D318BE
S315200010007B617A69BB691100180000F027F8031E7E
S3152000101005D03B00BA691A603B007A695A603B00EA
S315200010201A683B005B681900100000F03CF9094B78
S315200010301868094B1B6824221900FFF7DBF8FB68A8
S315200010403A0013CA13C3F868BD4608B0B0BDC046FF
S31520001050701C00201C230020641C002080B582B058
S3152000106000AF786039607B68002B02DB7B680D2B34
S3152000107001DD002308E03B68002B02DB3B68042BE4
S3152000108001DD002300E001231800BD4602B080BD2B
S3152000109084B0B0B584B000AF20257C192060616093
S315200010A0A260E3602C003B191A683B195B681900A3
S315200010B0100000F0F8F83B195B69002B11D03B1D9E
S315200010C0164A03CA03C312881A80154B1868154B93
S315200010D019683B199B683A1DD35C1A00FFF78AF8FA
S315200010E015E02023FB18DB68002B08D00C4B186872
S315200010F00C4B1B685E221900FFF77CF807E0084BB3
S315200011001868084B1B6820221900FFF773F8C046A1
S31520001110BD4604B0B0BC08BC04B01847282800203F
S315200011201C230020641C002080B582B000AF020082
S31520001130FB1D1A70FB1D1B78180000F079FD0200BC
S31520001140FB1D1A70FB1D1B78082B10D025DC062BE7
S315200011501CD022DC022B02D0042B0FD01DE0114B19
S3152000116000221A600F4B012252425A6015E00D4BA5
S3152000117000221A600B4B01225A600EE0094B012215
S3152000118052421A60074B00225A6006E0054B0122A4
S315200011901A60044B00225A60C046024B1800BD4616
S315200011A002B080BD541C002080B584B000AF7860AA
S315200011B00023FB606FE00023BB6066E0FA68130043
S315200011C01B019B1ADB001A007B689918BA6813006A
S315200011D05B009B18DB00FA685A50FA6813001B0163
S315200011E09B1ADB001A007B689918BA6813005B000B
S315200011F09B18DB00CB180433BA681A60FA68130010
S315200012001B019B1ADB001A007B689918BA68130029
S315200012105B009B18DB00CB18083300221A60FA68A3
S3152000122013001B019B1ADB001A007B689918BA6809
S3152000123013005B009B18DB00CB180C3300221A60CE
S31520001240FA6813001B019B1ADB001A007B689918A9
S31520001250BA6813005B009B18DB00CB1814330022FE
S315200012601A60FA6813001B019B1ADB001A007B68C0
S315200012709918BA6813005B009B18DB00CB18103353
S3152000128000221A60BB680133BB60BB68042B95DD66
S31520001290FB680133FB60FB680D2B8CDDC046C04626
S315200012A0BD4604B080BD80B582B000AF786039609D
S315200012B0044B7A681A60044B3A681A60C046BD46E9
S315200012C002B080BD1C230020641C002080B584B0A1
S315200012D000AFF860B9607A60214B224A1A60224B2F
S315200012E0224A1A60FFF767F8214B1800FFF75CFFC8
S315200012F0FB6800221A607B6800221A607B68002245
S315200013005A60BB6800221A6000210020FFF7CBFF3D
S31520001310184B1868184B1B6824221900FEF76AFF21
S31520001320FFF752F8154B1B680A22D31A1800FFF74D
S3152000133073F8134B00221A600E4B00221A600E4BD4
S3152000134000221A600F4B00221A600D4B00221A60F1
S315200013500A4B00221A60C046BD4604B080BDC04676
S3152000136020230020410F00206C1C0020670F002046
S31520001370701C00201C230020641C00202423002035
S3152000138018230020681C002080B500AF1B4B0022CC
S315200013901A601B4B00221A601A4B1B889BB2194AF3
S315200013A001218B439BB21380174B1B681933FF33E4
S315200013B0164A1A60164B1A68154B8021C9030A4330
S315200013C01A60144B144A1A80144B154A1A80154B6E
S315200013D01B889BB2134A01210B439BB21380094BF6
S315200013E01B889BB2074A01210B439BB213800E4BED
S315200013F001221A60C046BD4680BDC0462C2300206F
S31520001400282300200010004008ED00E02D140020C5
S3152000141004E100E028100040470300002C100040A3
S315200014200F2700000C1000403023002080B500AFAD
S315200014300D4B1B889BB20C4A01218B439BB2138018
S315200014400A4B1B685A1C094B1A60084B1B68092B50
S3152000145007DD064B00221A60054B1B685A1C044BFD
S315200014601A60C046BD4680BD101000402C230020C7
S315200014702823002080B500AF074B1B685A425341F2
S31520001480DBB21A00044B1A60034B1B68180000F0ED
S3152000149005F8C046BD4680BD3023002080B582B009
S315200014A000AF78607B68002B08D00C4B1B889BB262
S315200014B00A4A01210B439BB2138007E0074B1B8886
S315200014C09BB2064A01218B439BB21380044B7A6858
S315200014D01A60C046BD4602B080BDC046001000401E
S315200014E03023002080B500AF044B00221A60044B45
S315200014F000221A60C046BD4680BDC0462C2300206F
S315200015002823002080B582B000AF78600A4B7A6825
S315200015101A60094B1B68AA22D2051A60064B1B6863
S31520001520064A5A60044B1B68F0221203DA60C04652
S31520001530BD4602B080BDC046601C00200000AAFF48
S3152000154090B587B000AF3B00164A13CA13C3126882
S315200015501A6000237B6119E07B690133180000F0D3
S3152000156053F800F085F803003B613B69002B0AD055
S31520001570002000F049F87B699A003B69013BD318AB
S315200015803A00D35C09E07B6901337B617B69032BDD
S31520001590E2DD002000F038F8FF231800BD4607B032
S315200015A090BDC0463428002090B583B000AF144BC0
S315200015B01B78012B0DD1052000F026F8114B1B6856
S315200015C05B7CDBB2002B02D10D4B00221A70FE236E
S315200015D012E00B4B1B78002B0ED1FC1DFFF7B0FF42
S315200015E003002370FB1D1B78FF2B02D0044B012226
S315200015F01A70FB1D1B78FFE71800BD4603B090BD8F
S315200016005C1C0020601C002080B582B000AF786092
S315200016107B68052B23D87B689A00134BD3181B684D
S315200016209F46124B1B6810225A7518E00F4B1B68F9
S3152000163020225A7513E00D4B1B6840225A750EE086
S315200016400A4B1B6880225A7509E0084B1B68F0225A
S315200016505A7504E0054B1B6800225A75C046C046E1
S31520001660BD4602B080BDC04644280020601C002034
S3152000167080B582B000AF134B1A68FB1D527C1A70DE
S31520001680FB1D1B780822134001D0042315E0FB1D07
S315200016901B780422134001D003230EE0FB1D1B7888
S315200016A00222134001D0022307E0FB1D1B780122F2
S315200016B0134001D0012300E000231800BD4602B0EC
S315200016C080BDC046601C0020B0B58CB002AF00F0D3
S315200016D0CBF8604B01221A6000233B622623FB18BD
S315200016E000221A7000233B61A9E01423FA18102364
S315200016F0F9182023FB181800FFF7E8FD8BE0564B5E
S315200017001A68564B1B6819001000FEF7B9FEFFF742
S31520001710B7F827257C19FFF747FF030023702A0017
S31520001720BB181B78FF2B55D03B691D2B06DDBB183C
S315200017302622BA1812781A7000233B612722BB187A
S315200017401B78FE2B04D02623FB18BA1812781A70A1
S315200017502723FB181B780A2B02D00B2B19D027E046
S315200017603B6A002B0BD11423FB18186859689A681A
S31520001770FFF75AF901233B62FFF77CFE2BE0142189
S315200017807B181A687B185B6819001000FFF750FA5F
S3152000179021E01423FB18186859689A68FFF79EF908
S315200017A02F4B1B680A22D31A1800FEF735FE12E0CB
S315200017B01423FC183800FB182722BA181278009236
S315200017C019685A689B68FFF7E1FB3A00230013CAA1
S315200017D013C300E0C0462723FB181B78FF2B01D13B
S315200017E000233B612723FB181B78FE2B13D12622CF
S315200017F0BB181B78022B0BD0BB181B78042B07D0E9
S31520001800BB181B78082B03D0BB181B78062B02D1DC
S315200018103B6901333B61134B1B68002B00D16EE7FC
S31520001820FFF728FEFFF75EFE00F042F80200094BA4
S315200018301A600B4B00221A600A4B00221A60054BD5
S315200018401B68002B00D050E700231800BD460AB0C5
S31520001850B0BDC046681C0020282300202C23002071
S31520001860242300201823002080B500AF0B4B18003E
S31520001870FFF748FE0A4B0B4A1A600B4B0B4A1A60BD
S31520001880FEF796FDFEF70CFCFFF77EFDFFF7F2FD57
S31520001890FEF70EFEC046BD4680BDC046000C024087
S315200018A0001002405555555508ED00E000C00120B6
S315200018B0B0B58EB000AF20243B191B4A23CA23C3E0
S315200018C003CA03C312781A703B1D184A23CA23C3BE
S315200018D023CA23C312781A7001210120FEF7FEFDC8
S315200018E03B191800FEF718FE3723FB18FF221A7043
S315200018F037257C19FFF758FE030023707B191B78C8
S31520001900FE2BF5D07B191B78FF2B00D1F0E7C046C4
S315200019103723FB181B780D3B5A425341DBB2180084
S31520001920BD460EB0B0BDC0465C28002074280020FD
S31520001930002243088B4274D303098B425FD3030AE8
S315200019408B4244D3030B8B4228D3030C8B420DD3FB
S31520001950FF22090212BA030C8B4202D31212090289
S3152000196065D0030B8B4219D300E0090AC30B8B42C7
S3152000197001D3CB03C01A5241830B8B4201D38B0375
S31520001980C01A5241430B8B4201D34B03C01A52411A
S31520001990030B8B4201D30B03C01A5241C30A8B425D
S315200019A001D3CB02C01A5241830A8B4201D38B0248
S315200019B0C01A5241430A8B4201D34B02C01A5241EC
S315200019C0030A8B4201D30B02C01A5241CDD2C3095E
S315200019D08B4201D3CB01C01A524183098B4201D3DA
S315200019E08B01C01A524143098B4201D34B01C01AC5
S315200019F0524103098B4201D30B01C01A5241C3083D
S31520001A008B4201D3CB00C01A524183088B4201D3AB
S31520001A108B00C01A524143088B4201D34B00C01A97
S31520001A205241411A00D20146524110467047FFE703
S31520001A3001B5002000F0F0F802BDC0460029F7D01D
S31520001A4076E7704703460B437FD4002243088B4238
S31520001A5074D303098B425FD3030A8B4244D3030B0F
S31520001A608B4228D3030C8B420DD3FF22090212BAD4
S31520001A70030C8B4202D31212090265D0030B8B4250
S31520001A8019D300E0090AC30B8B4201D3CB03C01A3A
S31520001A905241830B8B4201D38B03C01A5241430B15
S31520001AA08B4201D34B03C01A5241030B8B4201D305
S31520001AB00B03C01A5241C30A8B4201D3CB02C01A70
S31520001AC05241830A8B4201D38B02C01A5241430AE8
S31520001AD08B4201D34B02C01A5241030A8B4201D3D7
S31520001AE00B02C01A5241CDD2C3098B4201D3CB017E
S31520001AF0C01A524183098B4201D38B01C01A52412D
S31520001B0043098B4201D34B01C01A524103098B4230
S31520001B1001D30B01C01A5241C3088B4201D3CB001B
S31520001B20C01A524183088B4201D38B00C01A5241FE
S31520001B3043088B4201D34B00C01A5241411A00D2AE
S31520001B4001465241104670475DE0CA0F00D0494217
S31520001B50031000D34042534000229C4603098B4287
S31520001B602DD3030A8B4212D3FC22890112BA030A0F
S31520001B708B420CD3890192118B4208D38901921191
S31520001B808B4204D389013AD0921100E08909C30916
S31520001B908B4201D3CB01C01A524183098B4201D318
S31520001BA08B01C01A524143098B4201D34B01C01A03
S31520001BB0524103098B4201D30B01C01A5241C3087B
S31520001BC08B4201D3CB00C01A524183088B4201D3EA
S31520001BD08B00C01A5241D9D243088B4201D34B0005
S31520001BE0C01A5241411A00D20146634652415B1047
S31520001BF0104601D34042002B00D549427047634628
S31520001C005B1000D3404201B5002000F005F802BD6C
S31520001C100029F8D016E770477047C046002310B554
S31520001C209A4200D110BDCC5CC4540133F8E70000C1
S31520001C300322034B1B5C1340012B00D1203070473D
S31520001C408E28002000000000000000000000000098
S31520001C50000000000000000000000000000000005E
S31520001C60000000000000000000000000000000004E
S31520001C70000000000000000000000000000000003E
S31520001C80000000000000000000000000000000002E
S315200023300000000030000000000000000000000146
S31520002340010101000000010100000101000001005F
S315200023500000000100000100000001010000010052
S315200023600001000100000100010000010000010140
S315200023700000000100000100000000010000010132
S315200023800000010100000001010101000000000021
S3152000239000000000000000003100000000000000E6
S315200023A00000000001010000000000010001000003
S315200023B000000100000100000000000000010000F4
S315200023C000000000000100000000000000010000E5
S315200023D000000000000100000000000000010000D5
S315200023E000000000000100000000010101010101C0
S315200023F00000000000000000000000003200000085
S3152000240000000000000000000101010000000001A2
S315200024100000010100000100000000010000000092
S315200024200000000100000000000001000000000084
S315200024300001000000000000010000000000000173
S315200024400000000000000101000000000000010162
S315200024500101010100000000000000000000000052
S31520002460330000000000000000000101010101000E
S315200024700000000000000101000000000000000133
S315200024800000000000000101000000010101010020
S315200024900000000000000101000000000000000113
S315200024A00000000000000001000000000000000104
S315200024B000000101010101000000000000000000F1
S315200024C000000000340000000000000000000000B2
S315200024D000000101000000000001000100000000D2
S315200024E001000001000000010000000100000100C1
S315200024F000000001000001010101010101000000AE
S3152000250000000001000000000000000100000000A3
S315200025100000000100000000000000010000000093
S315200025200000000000000000240000000001000060
S31520002530000000000001000000000001010101016F
S31520002540000001010001000000000101000100005F
S31520002550000000010101000000000000010101004F
S31520002560000000000100010100000000010001013F
S31520002570000001000101010000000001010100002E
S315200025800000000001000000000000002A000000FA
S315200025900100000000000100010001000000000110
S315200025A001010000000000010101000000000100FF
S315200025B001000100000000000100000000000000F2
S315200025C000000000000000000000000000000000E5
S315200025D000000000000000000000000000000000D5
S315200025E000000000000000000000000000000000C5
S315200025F05E00000000000000000000000001000056
S3152000260000000000010001000000000100000001A0
S315200026100000010000000000010000000000000092
S315200026200000000000000000000000000000000084
S315200026300000000000000000000000000000000074
S315200026400000000000000000000000000000000064
S315200026500000000020000000000000000000000034
S315200026600000010000000000000101000000000041
S31520002670010101000000000101010100000001012B
S315200026800101010000000000000001000000000020
S315200026900000010000000000000001000000000012
S315200026A000010101000000010101010101000000FB
S315200026B000000000000000002000000000000000D4
S315200026C000000000000000000000000000000000E4
S315200026D000000000000000000000000000000000D4
S315200026E000000000000000000000000000000000C4
S315200026F000000000000000000000000000000000B4
S3152000270000000000000000000000000000000000A3
S315200027100000000000000000000000007A020020F7
S31520002720B6020020B6020020B6020020B602002023
S31520002730B60200208E020020B6020020B60200203B
S31520002740B6020020B6020020B602002016020020A3
S315200027502A0200203E0200205202002066020020AB
S31520002760B6020020B6020020B6020020B6020020E3
S31520002770B6020020B6020020B6020020B6020020D3
S31520002780B6020020B6020020B6020020B6020020C3
S31520002790B6020020B6020020B6020020B6020020B3
S315200027A0B6020020B6020020B6020020B6020020A3
S315200027B0B6020020B6020020B6020020B602002093
S315200027C0B6020020B6020020B6020020B602002083
S315200027D0B6020020B6020020B6020020B602002073
S315200027E0B6020020B6020020B6020020B602002063
S315200027F0B6020020B6020020B6020020B602002053
S31520002800B6020020A2020020466C616773206C6528
S3152000281066743A200000000054696D65723A2009FA
S31520002820090000002020000030313233343536379D
S31520002830383900000102030A0405060B0708090CB3
S315200028400E000F0D54160020221600202C160020F4
S3152000285036160020401600204A160020506C61795A
S3152000286020616761696E3F20796573202D3E204483
S3152000287000000000796573202D3E20442C206E6FC9
S31520002880202D3E20616E797468696E6700002020D5
S3152000289020202020202020282828282820202020EA
S315200028A020202020202020202020202020208810AA
S315200028B0101010101010101010101010101004040A
S315200028C00404040404040404101010101010104111
S315200028D04141414141010101010101010101010182
S315200028E00101010101010101011010101010104217
S315200028F04242424242020202020202020202020252
S31520002900020202020202020202101010102000002F
S315200029100000000000000000000000000000000091
S315200029200000000000000000000000000000000081
S315200029300000000000000000000000000000000071
S315200029400000000000000000000000000000000061
S315200029500000000000000000000000000000000051
S315200029600000000000000000000000000000000041
S315200029700000000000000000000000000000000031
S315200029800000000000000000000000000000000021
S70520000000DA
